:020000040800F2
:1000000000280020E5120008D90D0008DF0D0008C7
:10001000E50D0008EB0D0008F10D000800000000E0
:10002000000000000000000000000000F70D0008C4
:10003000030E0008000000000F0E00081B0E000851
:100040002D1300082D1300082D1300082D13000890
:100050002D1300082D1300082D1300082D13000880
:100060002D1300082D1300082D1300082D13000870
:100070002D1300082D1300082D1300082D13000860
:100080002D1300082D1300082D1300082D13000850
:100090002D1300082D1300082D1300082D13000840
:1000A0002D1300082D1300082D1300082D13000830
:1000B000290E00082D130008000000002D13000871
:1000C0002D13000800000000000000002D130008A0
:1000D000000000002D1300082D1300080000000090
:1000E0002D1300082D1300082D1300080000000038
:1000F0000000000000000000000000000000000000
:0C01000000000000000000005FF808F1A3
:10010C0010B5054C237833B9044B13B10448AFF345
:10011C0000800123237010BD5C0000200000000053
:10012C008429000808B5034B1BB103490348AFF3FE
:10013C00008008BD00000000600000208429000839
:10014C0080B582B000AF00237B608DE04B4A7B68AA
:10015C0052F823204A497B6841F82320494A7B689E
:10016C0052F8232045497B6841F823207B68022BF9
:10017C001FD07B68022B27DC7B68002B03D07B68AD
:10018C00012B0BD020E001213F4801F0B5FB0346C9
:10019C0019463C4A7B6842F8231016E002213A4883
:1001AC0001F0AAFB03461946364A7B6842F8231035
:1001BC000BE00421344801F09FFB03461946314AF9
:1001CC007B6842F8231000E000BF2C4A7B6852F891
:1001DC0023202C497B6851F823309A4241D1274A7D
:1001EC007B6852F8232026497B6851F823309A42C9
:1001FC0037D1264A7B6852F8232021497B6851F875
:10020C0023309A4219D01E4A7B6852F823201F498A
:10021C007B6841F823201D4A7B6852F82330002B61
:10022C001FD11B4A7B68012142F82310194A7B68B5
:10023C004FF4967142F8231013E0164A7B6852F87B
:10024C0023305A1E13497B6841F82320114A7B68DE
:10025C0052F82330002B04DC0C4A7B68012142F855
:10026C0023107B6801337B607B68022B7FF76EAFBA
:10027C0000BF00BF0837BD4680BD00BF180000207E
:10028C00240000200C000020000C01400000002085
:10029C0078000020D400002080B483B000AF7860D8
:1002AC007B68022B01DD00230DE0094A7B6852F8C4
:1002BC002330012B06D1064A7B68002142F823101B
:1002CC00012300E0002318460C37BD4680BC704764
:1002DC007800002080B500AF0020FFF7DDFF03465B
:1002EC00184680BD80B500AF0120FFF7D5FF03464F
:1002FC00184680BD80B500AF0220FFF7CDFF034646
:10030C00184680BD80B500AF844B1B680E2B36D0D1
:10031C000E2B00F391800C2B02D00D2B5ED08BE0BA
:10032C0000F048FE7E4B5B68013B7D4A53607C4B82
:10033C005B68002B07DA7A4B1B68013B784A136029
:10034C00774B09225A60764B1B68764A1360744BC4
:10035C005B68744A5360724B1B68002B6EDC704BED
:10036C005B68002B6ADC704B1B686D4A13606E4B2C
:10037C005B686B4A5360694B0D221A605EE000F0BB
:10038C0029FE6A4B5B68013B684A5360674B5B68AC
:10039C00002B07DA654B1B68013B644A1360634B07
:1003AC0009225A60614B1B685E4A13605F4B5B68A5
:1003BC005C4A53605D4B1B68002B41DC5B4B5B68FC
:1003CC00002B3DDC5A4B1B68584A1360584B5B683A
:1003DC00564A5360514B0C221A6031E000F0C8FDB4
:1003EC00544B5B68013B534A5360524B5B68002B88
:1003FC0007DA504B1B68013B4E4A13604D4B0922E8
:10040C005A604C4B1B68474A13604A4B5B68454A21
:10041C005360484B1B68002B0EDC464B5B68002B73
:10042C000ADC454B1B68434A1360434B5B68414AEB
:10043C0053603A4B0E221A6000BF02E000BF00E08E
:10044C0000BF3E4B1B68112B38D0112B00F3AB8037
:10045C000F2B02D0102B77D0A5E000F099FD384B74
:10046C005B68013B364A5360354B5B68002B07DAFF
:10047C00334B1B68013B324A1360314B09225A60E3
:10048C002F4B1B68274A93602D4B5B68254AD36022
:10049C002B4B1B68002B00F38880294B5B68002BCF
:1004AC0000F38380204B1B68254A13601E4B5B684E
:1004BC00234A5360214B10221A6076E000F0B8FDFD
:1004CC00204B5B68013B1F4A53601E4B5B68002B43
:1004DC0007DA1C4B1B68013B1A4A1360194B0922A3
:1004EC005A60184B1B680F4A9360164B5B680D4A99
:1004FC00D360144B1B68002B59DC124B5B68002B30
:10050C0055DC0B4B1B680F4A1360094B5B680D4A9B
:10051C0053600A4B0F221A6049E000BFF400002020
:10052C00A4000020E40000203C000020AC000020CF
:10053C0044000020B40000204C000020E00000200B
:10054C00BC000020C400002000F054FD1A4B5B6876
:10055C00013B194A5360184B5B68002B07DA164BAA
:10056C001B68013B144A1360134B09225A60124B4F
:10057C001B68124A9360104B5B68104AD3600E4B99
:10058C001B68002B15DC0C4B5B68002B11DC0C4B37
:10059C001B68094A13600A4B5B68074A5360094B96
:1005AC0011221A6005E000BF04E000BF02E000BFAA
:1005BC0000E000BF00BF80BDCC000020E4000020A4
:1005CC004C000020E000002080B500AFA84B1B6859
:1005DC00013B042B00F2E28101A252F823F000BF90
:1005EC00010600081D0600088B060008830700089A
:1005FC00B508000800F064FC9D4B02221A604FF411
:10060C00FA7000F017FB4FF4FA7000F02DFBCEE1FE
:10061C00984B1B68002B05D0FFF774FE4FF47A70D3
:10062C0000F008FB944B1B68184600F007FC934B3A
:10063C001B68002B0FD0904B1B6801338E4A136044
:10064C008D4B1B68012B02DD8B4B00221A604FF483
:10065C00FA7000F009FBFFF73DFE0346002B00F09B
:10066C009F81834B03221A604FF4FA7000F0C8FA92
:10067C004FF4FA7000F0F8FA00F0CEFC90E1FFF7BE
:10068C0031FE0346002B17D07D4B5B6801337C4A4F
:10069C0053607B4B5B68092B0EDD794B1B68013378
:1006AC00774A1360764B00225A60754B1B68092BF6
:1006BC0002DD734B00221A60724B1B68002B22D098
:1006CC00714B00221A60704B02225A606C4B1B68F3
:1006DC006D4A93606A4B5B686B4AD3606B4B1B68CB
:1006EC00184600F0ABFB694B1B680133674A13607B
:1006FC00664B1B68012B02DD644B00221A604FF421
:10070C00FA7000F07DFA5D4B1B68002B07D0482176
:10071C005F4801F020F94FF4FA7000F0A5FAFFF7EA
:10072C00D9FD0346002B0CD0514B04221A604FF418
:10073C00FA7000F065FA4FF4FA7000F095FA00F0D8
:10074C006BFCFFF7D7FD0346002B00F02B814C4BC5
:10075C001B68504A13604A4B5B684E4A5360484BC7
:10076C001B684D4A1360464B5B684B4A5360404BC9
:10077C0001221A6016E1FFF7B5FD0346002B17D0D6
:10078C00464B5B680133454A5360444B5B68092B0D
:10079C000EDD424B1B680133404A13603F4B002275
:1007AC005A603E4B1B68092B02DD3C4B00221A6041
:1007BC00344B1B68002B22D0334B00221A60324B77
:1007CC0003225A60354B1B682F4A9360334B5B688E
:1007DC002D4AD3602D4B1B68184600F02FFB2B4B7A
:1007EC001B680133294A1360284B1B68012B02DD5F
:1007FC00264B00221A604FF4FA7000F001FA1F4BDE
:10080C001B68002B07D09021214801F0A4F84FF46D
:10081C00FA7000F029FAFFF75DFD0346002B0CD0AF
:10082C00134B05221A604FF4FA7000F0E9F94FF4FB
:10083C00FA7000F019FA00F0EFFBFFF75BFD0346CE
:10084C00002B00F0B180154B1B68154A1360134B3D
:10085C005B68134A5360114B1B68124A13600F4BB1
:10086C005B68104A5360024B01221A609CE000BF87
:10087C003000002094000020880000209C00002004
:10088C003C0000208C000020E400002084000020AC
:10089C00000C0140A4000020BC00002044000020FB
:1008AC00AC000020C4000020FFF71CFD0346002B09
:1008BC0017D0404B5B6801333E4A53603D4B5B683D
:1008CC00092B0EDD3B4B1B6801333A4A1360394B45
:1008DC0000225A60374B1B68092B02DD354B002276
:1008EC001A60354B1B68002B22D0344B00221A6047
:1008FC00324B04225A602F4B1B68304A93602D4BAD
:10090C005B682E4AD3602E4B1B68184600F096FA93
:10091C002B4B1B6801332A4A1360294B1B68012B94
:10092C0002DD274B00221A604FF4FA7000F068F9D0
:10093C00244B1B68002B08D04FF49071224801F017
:10094C000AF84FF4FA7000F08FF9FFF7C3FC034676
:10095C00002B0AD01D4B01221A604FF4FA7000F0E4
:10096C0069F94FF4FA7000F04BF9FFF7C3FC03463A
:10097C00002B1BD00F4B1B68154A13600D4B5B688B
:10098C00134A53600B4B1B68124A1360094B5B688C
:10099C00104A53600D4B01221A6007E000BF06E0BD
:1009AC0000BF04E000BF02E000BF00E000BF00BFDA
:1009BC0080BD00BF4C0000208C000020E400002013
:1009CC00840000209C000020000C0140300000201E
:1009DC00B4000020CC00002080B500AF00F0A2FCD9
:1009EC0000F012F800F098F800F04AF8044801F012
:1009FC0003FC044B01221A60FFF7E6FDFCE700BF85
:100A0C00F80000203000002080B590B000AF07F156
:100A1C00180328220021184601F0A6FF3B1D0022D6
:100A2C001A605A609A60DA601A610223BB61012372
:100A3C00BB621023FB6200237B6307F1180318468B
:100A4C0000F0A2FF0346002B01D000F0D3F80F23D7
:100A5C007B600023BB600023FB6000233B61002311
:100A6C007B613B1D0021184601F00EFA0346002B5A
:100A7C0001D000F0BFF800BF4037BD4680BD00007C
:100A8C0080B586B000AF07F1080300221A605A60E7
:100A9C009A60DA603B4600221A605A601D4B4FF098
:100AAC0080421A601B4B41F63F725A60194B002270
:100ABC009A60184B0A22DA60164B00221A61154B09
:100ACC0000229A61134801F047FB0346002B01D02A
:100ADC0000F090F84FF48053BB6007F108031946FF
:100AEC000C4801F0DDFC0346002B01D000F082F82D
:100AFC0000233B6000237B603B461946054801F010
:100B0C00A5FE0346002B01D000F074F800BF183787
:100B1C00BD4680BDF800002080B586B000AF07F15F
:100B2C00080300221A605A609A60DA60284B9B69AD
:100B3C00274A43F004039361254B9B6903F004039C
:100B4C007B607B68224B9B69214A43F008039361CD
:100B5C001F4B9B6903F008033B603B68002243F684
:100B6C00F8711C4800F0DFFE00224FF6F8711A48AD
:100B7C0000F0D9FE43F6F873BB600123FB60002341
:100B8C003B6102237B6107F108031946114800F011
:100B9C0039FD0723BB600023FB6001233B6107F198
:100BAC00080319460C4800F02DFD4FF6F873BB6096
:100BBC000123FB6000233B6102237B6107F10803E7
:100BCC001946054800F01EFD00BF1837BD4680BD14
:100BDC000010024000080140000C014080B582B0BA
:100BEC0000AF786000F05AF8FFF7AAFA00BF083798
:100BFC00BD4680BD80B400AF72B600BFFEE70000FA
:100C0C0080B483B000AF7860074B1B687A6892FBA6
:100C1C00F3F3064A1360064B00221A6000BF0C3730
:100C2C00BD4680BC704700BF3400002090000020FF
:100C3C008C00002080B483B000AF7860074B1B6839
:100C4C007A6892FBF3F3064A1360064B00221A6093
:100C5C0000BF0C37BD4680BC704700BF340000207D
:100C6C00980000209400002080B483B000AF78601E
:100C7C00074B1B687A6892FBF3F3064A1360064B2A
:100C8C0000221A6000BF0C37BD4680BC704700BF05
:100C9C0034000020A00000209C00002080B400AF95
:100CAC00194B1B68002B0BDD174B1B68013B164ABD
:100CBC001360154B1B68002B02DC144B01221A60CD
:100CCC00134B1B68002B0BDD114B1B68013B104AAF
:100CDC0013600F4B1B68002B02DC0E4B01221A60B9
:100CEC000D4B1B68002B0BDD0B4B1B68013B0A4AA1
:100CFC001360094B1B68002B02DC084B01221A60A5
:100D0C0000BFBD4680BC7047900000208C000020C6
:100D1C009800002094000020A00000209C000020DF
:100D2C0080B485B000AF154B9B69144A43F00103A6
:100D3C009361124B9B6903F00103BB60BB680F4BC3
:100D4C00DB690E4A43F08053D3610C4BDB6903F033
:100D5C0080537B607B680A4B5B68FB60FB6823F00D
:100D6C00E063FB60FB6843F08063FB60044AFB6854
:100D7C00536000BF1437BD4680BC70470010024062
:100D8C000000014080B584B000AF78607B681B68C0
:100D9C00B3F1804F13D10C4BDB690B4A43F00103C9
:100DAC00D361094BDB6903F00103FB60FB68002294
:100DBC0000211C2000F0EFFB1C2000F008FC00BF01
:100DCC001037BD4680BD00BF0010024080B400AF9C
:100DDC00FEE780B400AFFEE780B400AFFEE780B45E
:100DEC0000AFFEE780B400AFFEE780B400AF00BFF9
:100DFC00BD4680BC704780B400AF00BFBD4680BC10
:100E0C00704780B400AF00BFBD4680BC704780B552
:100E1C0000AF00F0CDFA00BF80BD000080B500AF80
:100E2C00024801F035FA00BF80BD00BFF800002079
:100E3C0080B400AF00BFBD4680BC704780B582B0A7
:100E4C0000AF78607B68002B03D07B68012B17D038
:100E5C002DE000224FF4A051174800F064FD012250
:100E6C004FF42051144800F05EFD144B1B681846DB
:100E7C0000F094F9114B9B68184600F0EBF816E063
:100E8C0001224FF4A0510C4800F04DFD00224FF40C
:100E9C002051094800F047FD084B5B68184600F0EC
:100EAC007DF9064BDB68184600F0D4F800BF00BF94
:100EBC000837BD4680BD00BF00080140E40000209B
:100ECC0080B500AF00F0A8F81D4B0C221A601D4B2A
:100EDC0010221A601C4B1B681C4A13601B4B1B68AE
:100EEC001B4A1360184B5B68184A5360174B5B68BE
:100EFC00174A5360174B1B68174A1360164B1B6835
:100F0C00164A1360134B5B68134A5360124B5B68B1
:100F1C00124A5360124B1B68124A1360114B1B6828
:100F2C00114A13600E4B5B680E4A53600D4B5B68A5
:100F3C000D4A53600D4B00221A6000BF80BD00BFEC
:100F4C00F4000020E00000203C000020BC00002049
:100F5C00A400002044000020C4000020AC000020AD
:100F6C004C000020CC000020B400002088000020A1
:100F7C0080B500AF00222021044800F0D4FC0122EF
:100F8C001821024800F0CFFC00BF80BD000C0140CE
:100F9C0080B500AF00224021054800F0C4FC0122BE
:100FAC004FF4C071024800F0BEFC00BF80BD00BF12
:100FBC00000C014080B500AF00220821044800F06D
:100FCC00B2FC01223021024800F0ADFC00BF80BD14
:100FDC00000C014080B500AF00221021044800F045
:100FEC00A2FC01222821024800F09DFC00BF80BD1C
:100FFC00000C014080B500AF00224FF48071054811
:10100C0000F091FC0122C021024800F08CFC00BFD2
:10101C0080BD00BF000C014080B500AF01224FF431
:10102C00FC71024800F07FFC00BF80BD000C014049
:10103C0080B500AF00228021054800F074FC01222D
:10104C004FF4A071024800F06EFC00BF80BD00BFE1
:10105C00000C014080B582B000AF78607B68002B3B
:10106C000CD100224FF4FC414B4800F05CFC0122F7
:10107C004FF40041484800F056FC88E07B68012B97
:10108C000CD100224FF44061434800F04CFC01228B
:10109C004FF47241404800F046FC78E07B68022B2C
:1010AC000CD100224FF436413B4800F03CFC0122AD
:1010BC004FF49041384800F036FC68E07B68032B15
:1010CC000CD100224FF41E41334800F02CFC0122BD
:1010DC004FF4C041304800F026FC58E07B68042BEC
:1010EC000CD100224FF44C412B4800F01CFC012287
:1010FC004FF44851284800F016FC48E07B68052B5B
:10110C000CD100224FF45A41234800F00CFC012270
:10111C004FF41051204800F006FC38E07B68062B99
:10112C000CD100224FF47A411B4800F0FCFB012249
:10113C004FF48061184800F0F6FB28E07B68072B21
:10114C000CD100224FF46061134800F0ECFB01223B
:10115C004FF47041104800F0E6FB18E07B68082B58
:10116C0006D100224FF47E410B4800F0DCFB0EE070
:10117C007B68092B0BD100224FF45E41064800F02E
:10118C00D2FB01224FF40051034800F0CCFB00BF0E
:10119C000837BD4680BD00BF000C014080B582B051
:1011AC0000AF78607B68002B0CD100224FF4FC71EF
:1011BC00484800F0B8FB01224FF40071454800F09C
:1011CC00B2FB82E07B68012B0BD10022302141481D
:1011DC0000F0A9FB01224FF472713E4800F0A3FB12
:1011EC0073E07B68022B0CD100224FF43671394826
:1011FC0000F099FB01224FF49071364800F093FBFC
:10120C0063E07B68032B0CD100224FF41E71314834
:10121C0000F089FB01224FF4C0712E4800F083FBD3
:10122C0053E07B68042B0BD100224FF44C712948FE
:10123C0000F079FB0122C821264800F074FB44E041
:10124C007B68052B0BD100224FF45A71214800F01A
:10125C006AFB012290211F4800F065FB35E07B689A
:10126C00062B0BD100224FF47A711A4800F05BFB6D
:10127C0001221021174800F056FB26E07B68072B53
:10128C000BD100223821134800F04DFB01224FF402
:10129C007071104800F047FB17E07B68082B06D1F3
:1012AC0000224FF47E710B4800F03DFB0DE07B6893
:1012BC00092B0AD100224FF45E71064800F033FB73
:1012CC0001228021034800F02EFB00BF0837BD46E9
:1012DC0080BD00BF000801400C480D490D4A002399
:1012EC0002E0D458C4500433C4188C42F9D30A4ACF
:1012FC000A4C002301E013600432A242FBD3FFF737
:10130C0097FD01F00DFBFFF767FB70470000002015
:10131C005C000020C42900085C000020440100206F
:10132C00FEE7000080B500AF084B1B68074A43F08E
:10133C0010031360032000F023F90F2000F008F8CD
:10134C00FFF7EEFC0023184680BD00BF00200240D2
:10135C0080B582B000AF7860124B1A68124B1B78C4
:10136C0019464FF47A73B3FBF1F3B2FBF3F318465F
:10137C0000F03BF90346002B01D001230EE07B6803
:10138C000F2B0AD8002279684FF0FF3000F003F9D8
:10139C00064A7B681360002300E0012318460837D7
:1013AC00BD4680BD380000205800002054000020AD
:1013BC0080B400AF054B1B781A46054B1B681344D1
:1013CC00034A136000BFBD4680BC70475800002024
:1013DC004001002080B400AF024B1B681846BD468C
:1013EC0080BC70474001002080B485B000AF7860AD
:1013FC007B6803F00703FB600C4BDB68BB60BA68CF
:10140C004FF6FF031340BB60FB681A02BB68134323
:10141C0043F0BF6343F40033BB60044ABB68D36042
:10142C0000BF1437BD4680BC704700BF00ED00E024
:10143C0080B400AF044BDB681B0A03F007031846AB
:10144C00BD4680BC704700BF00ED00E080B483B0A7
:10145C0000AF0346FB7197F90730002B0BDBFB79D0
:10146C0003F01F02064997F907305B09012000FAC7
:10147C0002F241F8232000BF0C37BD4680BC7047F8
:10148C0000E100E080B483B000AF03463960FB712B
:10149C0097F90730002B0ADB3B68DAB20C4997F955
:1014AC0007301201D2B20B4483F800230AE03B68E8
:1014BC00DAB20849FB7903F00F03043B1201D2B2F4
:1014CC000B441A7600BF0C37BD4680BC704700BF7A
:1014DC0000E100E000ED00E080B489B000AFF860FE
:1014EC00B9607A60FB6803F00703FB61FB69C3F129
:1014FC000703042B28BF0423BB61FB690433062BB1
:10150C0002D9FB69033B00E000237B614FF0FF3203
:10151C00BB6902FA03F3DA43BB681A407B699A4051
:10152C004FF0FF317B6901FA03F3D9437B680B4021
:10153C00134318462437BD4680BC704780B582B033
:10154C0000AF78607B68013BB3F1807F01D301234E
:10155C000FE00A4A7B68013B53600F214FF0FF30CC
:10156C00FFF790FF054B00229A60044B07221A608C
:10157C00002318460837BD4680BD00BF10E000E0D0
:10158C0080B582B000AF78607868FFF72DFF00BFA0
:10159C000837BD4680BD80B586B000AF0346B96044
:1015AC007A60FB7300237B61FFF742FF78617A68F6
:1015BC00B9687869FFF790FF024697F90F3011462A
:1015CC001846FFF75FFF00BF1837BD4680BD80B5DA
:1015DC0082B000AF0346FB7197F907301846FFF74E
:1015EC0035FF00BF0837BD4680BD80B582B000AF67
:1015FC0078607868FFF7A2FF034618460837BD46A7
:10160C0080BD000080B48BB000AF786039600023DF
:10161C007B6200233B6248E101227B6A02FA03F3FE
:10162C00FB613B681B68FA691340BB61BA69FB69D3
:10163C009A4240F037813B685B68A34A93425ED084
:10164C00A14A934275D8A14A934258D09F4A9342DB
:10165C006FD89F4A934252D09D4A934269D89D4A73
:10166C0093424CD09B4A934263D89B4A934246D0B8
:10167C00994A93425DD8122B2AD8122B59D801A221
:10168C0052F823F00B170008E5160008F7160008AF
:10169C00391700083F1700083F1700083F170008CC
:1016AC003F1700083F1700083F1700083F170008B6
:1016BC003F1700083F1700083F1700083F170008A6
:1016CC003F1700083F170008ED1600080117000827
:1016DC00824A934213D02CE03B68DB683B6229E0E2
:1016EC003B68DB6804333B6224E03B68DB6808330F
:1016FC003B621FE03B68DB680C333B621AE03B68E3
:10170C009B68002B02D104233B6213E03B689B686F
:10171C00012B05D108233B627B68FA691A6109E049
:10172C0008233B627B68FA695A6103E000233B6241
:10173C0000E000BFBB69FF2B01D87B6801E07B6830
:10174C0004337B61BB69FF2B02D87B6A9B0002E0F0
:10175C007B6A083B9B003B617B691A680F213B69E4
:10176C0001FA03F3DB431A40396A3B6901FA03F3CC
:10177C001A437B691A603B685B6803F08053002B4B
:10178C0000F09080564B9B69554A43F001039361DE
:10179C00534B9B6903F00103BB60BB68514A7B6AE6
:1017AC009B08023352F82330FB607B6A03F003037F
:1017BC009B000F2202FA03F3DB43FA681340FB6031
:1017CC007B68494A93420DD07B68484A934207D0C4
:1017DC007B68474A934201D1022304E0032302E0D1
:1017EC00012300E000237A6A02F003029200934086
:1017FC00FA681343FB603B497B6A9B080233FA6827
:10180C0041F823203B685B6803F48033002B06D03F
:10181C00384B1A683749BB6913430B6006E0354BEC
:10182C001A68BB69DB43334913400B603B685B6848
:10183C0003F40033002B06D02E4B5A682D49BB699C
:10184C0013434B6006E02B4B5A68BB69DB432949B9
:10185C0013404B603B685B6803F48013002B06D08D
:10186C00244B9A682349BB6913438B6006E0214BD8
:10187C009A68BB69DB431F4913408B603B685B680C
:10188C0003F40013002B06D01A4BDA681949BB6914
:10189C001343CB6006E0174BDA68BB69DB43154991
:1018AC001340CB607B6A01337B623B681A687B6AAE
:1018BC0022FA03F3002B7FF4AFAE00BF00BF2C372E
:1018CC00BD4680BC704700BF0000321000003110D4
:1018DC000000221000002110000012100000111056
:1018EC00001002400000014000080140000C0140C3
:1018FC00001001400004014080B485B000AF786056
:10190C000B467B807B689A687B881340002B02D047
:10191C000123FB7301E00023FB73FB7B1846143798
:10192C00BD4680BC704780B483B000AF78600B4676
:10193C007B8013467B707B78002B03D07A887B6886
:10194C001A6103E07B881A047B681A6100BF0C37AC
:10195C00BD4680BC704780B485B000AF78600B4644
:10196C007B807B68DB68FB607A88FB6813401A0419
:10197C00FB68D9437B880B401A437B681A6100BF14
:10198C001437BD4680BC704780B586B000AF786018
:10199C007B68002B01D101236CE27B681B6803F090
:1019AC000103002B00F08780924B5B6803F00C0363
:1019BC00042B0CD08F4B5B6803F00C03082B12D15B
:1019CC008C4B5B6803F48033B3F5803F0BD1894BB0
:1019DC001B6803F40033002B6CD07B685B68002B16
:1019EC0068D1012346E27B685B68B3F5803F06D182
:1019FC00804B1B687F4A43F4803313602EE07B6876
:101A0C005B68002B0CD17B4B1B687A4A23F4803328
:101A1C001360784B1B68774A23F4802313601DE016
:101A2C007B685B68B3F5A02F0CD1724B1B68714AB5
:101A3C0043F4802313606F4B1B686E4A43F480336E
:101A4C0013600BE06B4B1B686A4A23F48033136002
:101A5C00684B1B68674A23F4802313607B685B68C0
:101A6C00002B13D0FFF7B6FC386108E0FFF7B2FC8F
:101A7C0002463B69D31A642B01D90323FAE15D4B6F
:101A8C001B6803F40033002BF0D014E0FFF7A2FC2A
:101A9C00386108E0FFF79EFC02463B69D31A642BC1
:101AAC0001D90323E6E1534B1B6803F40033002BED
:101ABC00F0D100E000BF7B681B6803F00203002B31
:101ACC0063D04C4B5B6803F00C03002B0BD0494BE1
:101ADC005B6803F00C03082B1CD1464B5B6803F4CA
:101AEC008033002B16D1434B1B6803F00203002BF1
:101AFC0005D07B681B69012B01D00123BAE13D4B5A
:101B0C001B6823F0F8027B685B69DB0039491343DF
:101B1C000B603AE07B681B69002B20D0364B01220E
:101B2C001A60FFF757FC386108E0FFF753FC0246D8
:101B3C003B69D31A022B01D903239BE12D4B1B6864
:101B4C0003F00203002BF0D02A4B1B6823F0F802A1
:101B5C007B685B69DB00274913430B6015E0264B60
:101B6C0000221A60FFF736FC386108E0FFF732FC00
:101B7C0002463B69D31A022B01D903237AE11D4B90
:101B8C001B6803F00203002BF0D17B681B6803F089
:101B9C000803002B3AD07B689B69002B19D0174B9C
:101BAC0001221A60FFF716FC386108E0FFF712FCFF
:101BBC0002463B69D31A022B01D903235AE10D4B80
:101BCC005B6A03F00203002BF0D0012000F0A6FAB0
:101BDC001CE00A4B00221A60FFF7FCFB38610FE097
:101BEC00FFF7F8FB02463B69D31A022B08D90323F3
:101BFC0040E100BF0010024000004242800442421B
:101C0C009E4B5B6A03F00203002BE9D17B681B68D7
:101C1C0003F00403002B00F0A6800023FB75974B08
:101C2C00DB6903F08053002B0DD1944BDB69934A95
:101C3C0043F08053D361914BDB6903F08053BB605D
:101C4C00BB680123FB758E4B1B6803F48073002B60
:101C5C0018D18B4B1B688A4A43F480731360FFF7CF
:101C6C00B9FB386108E0FFF7B5FB02463B69D31AB4
:101C7C00642B01D90323FDE0814B1B6803F48073B3
:101C8C00002BF0D07B68DB68012B06D17B4B1B6AE9
:101C9C007A4A43F0010313622DE07B68DB68002B6A
:101CAC000CD1764B1B6A754A23F001031362734BFC
:101CBC001B6A724A23F0040313621CE07B68DB6826
:101CCC00052B0CD16D4B1B6A6C4A43F00403136259
:101CDC006A4B1B6A694A43F0010313620BE0674BC2
:101CEC001B6A664A23F001031362644B1B6A634A46
:101CFC0023F0040313627B68DB68002B15D0FFF71D
:101D0C0069FB38610AE0FFF765FB02463B69D31AB1
:101D1C0041F28832934201D90323ABE0574B1B6A43
:101D2C0003F00203002BEED014E0FFF753FB3861F5
:101D3C000AE0FFF74FFB02463B69D31A41F28832A7
:101D4C00934201D9032395E04C4B1B6A03F0020329
:101D5C00002BEED1FB7D012B05D1484BDB69474AAB
:101D6C0023F08053D3617B68DB69002B00F081800A
:101D7C00424B5B6803F00C03082B61D07B68DB697A
:101D8C00022B46D13F4B00221A60FFF723FB386130
:101D9C0008E0FFF71FFB02463B69D31A022B01D95F
:101DAC00032367E0354B1B6803F00073002BF0D165
:101DBC007B681B6AB3F5803F08D1304B5B6823F41A
:101DCC0000327B689B682D4913434B602B4B5B683F
:101DDC0023F474127B68196A7B685B6A0B4327498E
:101DEC0013434B60274B01221A60FFF7F3FA38615B
:101DFC0008E0FFF7EFFA02463B69D31A022B01D930
:101E0C00032337E01D4B1B6803F00073002BF0D04D
:101E1C002FE01C4B00221A60FFF7DCFA386108E057
:101E2C00FFF7D8FA02463B69D31A022B01D90323D8
:101E3C0020E0124B1B6803F00073002BF0D118E06C
:101E4C007B68DB69012B01D1012313E00B4B5B6831
:101E5C00FB60FB6803F480327B681B6A9A4206D1F4
:101E6C00FB6803F470127B685B6A9A4201D0012311
:101E7C0000E0002318461837BD4680BD0010024014
:101E8C00007000406000424280B584B000AF7860C2
:101E9C0039607B68002B01D10123D0E06A4B1B68B1
:101EAC0003F007033A689A4210D9674B1B6823F07A
:101EBC00070265493B6813430B60634B1B6803F0D7
:101ECC0007033A689A4201D00123B8E07B681B688B
:101EDC0003F00203002B20D07B681B6803F0040383
:101EEC00002B05D0594B5B68584A43F4E0635360B0
:101EFC007B681B6803F00803002B05D0534B5B6811
:101F0C00524A43F460535360504B5B6823F0F00229
:101F1C007B689B684D4913434B607B681B6803F0DF
:101F2C000103002B40D07B685B68012B07D1474B2A
:101F3C001B6803F40033002B15D101237FE07B6871
:101F4C005B68022B07D1414B1B6803F00073002B1D
:101F5C0009D1012373E03D4B1B6803F00203002BF6
:101F6C0001D101236BE0394B5B6823F003027B68E2
:101F7C005B68364913434B60FFF72CFAF8600AE0B4
:101F8C00FFF728FA0246FB68D31A41F288329342D3
:101F9C0001D9032353E02D4B5B6803F00C027B68E3
:101FAC005B689B009A42EBD1274B1B6803F007033D
:101FBC003A689A4210D2244B1B6823F0070222493C
:101FCC003B6813430B60204B1B6803F007033A6814
:101FDC009A4201D0012332E07B681B6803F00403B2
:101FEC00002B08D0194B5B6823F4E0627B68DB683C
:101FFC00164913434B607B681B6803F00803002BE6
:10200C0009D0124B5B6823F460527B681B69DB00C0
:10201C000E4913434B6000F021F802460B4B5B68F2
:10202C001B0903F00F030A49CB5C22FA03F3094A9C
:10203C001360094B1B681846FFF78AF900231846F2
:10204C001037BD4680BD00BF00200240001002408A
:10205C00AC290008380000205400002090B48AB04D
:10206C0000AF2A4B3C1D0FCB84E80F0040F201233C
:10207C003B800023FB610023BB6100237B620023B8
:10208C007B6100233B62224B5B68FB61FB6903F0C5
:10209C000C03042B02D0082B03D02DE01D4B3B620C
:1020AC002DE0FB699B0C03F00F0307F1280213448E
:1020BC0013F8243C7B61FB6903F48033002B13D0B1
:1020CC00134B5B685B0C03F0010307F1280213440C
:1020DC0013F8283CBB617B690E4A02FB03F2BB6917
:1020EC00B2FBF3F37B6204E07B690B4A02FB03F364
:1020FC007B627B6A3B6202E0064B3B6200BF3B6A41
:10210C0018462837BD4690BC704700BF9C29000874
:10211C000010024000127A0000093D0080B485B026
:10212C0000AF78600A4B1B680A4AA2FB03235B0AC8
:10213C007A6802FB03F3FB6000BFFB685A1EFA606F
:10214C00002BF9D100BF00BF1437BD4680BC7047CF
:10215C0038000020D34D621080B582B000AF78609B
:10216C007B68002B01D1012341E07B6893F83D3063
:10217C00DBB2002B06D17B68002283F83C20786808
:10218C00FEF700FE7B68022283F83D207B681A680C
:10219C007B6804331946104600F06AFA7B6801220A
:1021AC0083F846207B68012283F83E207B6801225D
:1021BC0083F83F207B68012283F840207B68012252
:1021CC0083F841207B68012283F842207B6801223E
:1021DC0083F843207B68012283F844207B6801222A
:1021EC0083F845207B68012283F83D2000231846A4
:1021FC000837BD4680BD000080B485B000AF786064
:10220C007B6893F83D30DBB2012B01D0012335E024
:10221C007B68022283F83D207B681B68DA687B6848
:10222C001B6842F00102DA607B681B68164A934215
:10223C0009D07B681B68B3F1804F04D07B681B68A6
:10224C00124A934211D17B681B689B6803F0070309
:10225C00FB60FB68062B10D07B681B681A687B68D8
:10226C001B6842F001021A6007E07B681B681A6861
:10227C007B681B6842F001021A6000231846143771
:10228C00BD4680BC704700BF002C014000040040DC
:10229C0080B582B000AF78607B681B681B6903F067
:1022AC000203022B22D17B681B68DB6803F002035C
:1022BC00022B1BD17B681B686FF002021A617B68D2
:1022CC0001221A777B681B689B6903F00303002BC0
:1022DC0003D0786800F0B1F905E0786800F0A4F953
:1022EC00786800F0B3F97B6800221A777B681B686A
:1022FC001B6903F00403042B22D17B681B68DB6889
:10230C0003F00403042B1BD17B681B686FF00402E1
:10231C001A617B6802221A777B681B689B6903F43D
:10232C004073002B03D0786800F087F905E07868DB
:10233C0000F07AF9786800F089F97B6800221A7746
:10234C007B681B681B6903F00803082B22D17B6890
:10235C001B68DB6803F00803082B1BD17B681B6828
:10236C006FF008021A617B6804221A777B681B687D
:10237C00DB6903F00303002B03D0786800F05DF9F0
:10238C0005E0786800F050F9786800F05FF97B6838
:10239C0000221A777B681B681B6903F01003102B53
:1023AC0022D17B681B68DB6803F01003102B1BD158
:1023BC007B681B686FF010021A617B6808221A7721
:1023CC007B681B68DB6903F44073002B03D07868CF
:1023DC0000F033F905E0786800F026F9786800F031
:1023EC0035F97B6800221A777B681B681B6903F040
:1023FC000103012B0ED17B681B68DB6803F0010322
:10240C00012B07D17B681B686FF001021A61786899
:10241C00FEF7E4FB7B681B681B6903F08003802BD1
:10242C000ED17B681B68DB6803F08003802B07D11F
:10243C007B681B686FF080021A61786800F067FA9D
:10244C007B681B681B6903F04003402B0ED17B6833
:10245C001B68DB6803F04003402B07D17B681B68CB
:10246C006FF040021A61786800F0F9F87B681B681D
:10247C001B6903F02003202B0ED17B681B68DB68E3
:10248C0003F02003202B07D17B681B686FF0200220
:10249C001A61786800F032FA00BF0837BD4680BD7B
:1024AC0080B584B000AF786039607B6893F83C30BD
:1024BC00012B01D10223B3E07B68012283F83C207D
:1024CC007B68022283F83D207B681B689B68FB605D
:1024DC00FB6823F07703FB60FB6823F47F43FB600E
:1024EC007B681B68FA689A603B681B68B3F5005FF1
:1024FC003ED0B3F5005F00F28780B3F5805F00F04B
:10250C008580B3F5805F7FD8702B1AD0702B7BD869
:10251C00602B50D0602B77D8502B3CD0502B73D8DD
:10252C00402B58D0402B6FD8302B64D0302B6BD82D
:10253C00202B60D0202B67D8002B5CD0102B5AD0CE
:10254C0062E07B6818683B6899683B685A683B682E
:10255C00DB6800F05CF97B681B689B68FB60FB68C0
:10256C0043F07703FB607B681B68FA689A604EE067
:10257C007B6818683B6899683B685A683B68DB68FD
:10258C0000F045F97B681B689A687B681B6842F40D
:10259C0080429A603BE07B6818683B6859683B68EE
:1025AC00DB681A4600F0BCF87B681B6850211846A3
:1025BC0000F013F92BE07B6818683B6859683B689E
:1025CC00DB681A4600F0DAF87B681B686021184655
:1025DC0000F003F91BE07B6818683B6859683B689E
:1025EC00DB681A4600F09CF87B681B684021184693
:1025FC0000F0F3F80BE07B681A683B681B6819461F
:10260C00104600F0EAF802E000BF00E000BF7B6873
:10261C00012283F83D207B68002283F83C200023B4
:10262C0018461037BD4680BD80B483B000AF7860CB
:10263C0000BF0C37BD4680BC704780B483B000AF80
:10264C00786000BF0C37BD4680BC704780B483B047
:10265C0000AF786000BF0C37BD4680BC704780B4BB
:10266C0083B000AF786000BF0C37BD4680BC7047AC
:10267C0080B485B000AF786039607B681B68FB6004
:10268C007B68254A934207D07B68B3F1804F03D017
:10269C007B68224A934208D1FB6823F07003FB60ED
:1026AC003B685B68FA681343FB607B681A4A934289
:1026BC0007D07B68B3F1804F03D07B68174A9342F5
:1026CC0008D1FB6823F44073FB603B68DB68FA6855
:1026DC001343FB60FB6823F080023B685B69134388
:1026EC00FB607B68FA681A603B689A687B68DA6200
:1026FC003B681A687B689A627B68074A934203D1ED
:10270C003B681A697B681A637B6801225A6100BFB7
:10271C001437BD4680BC7047002C014000040040BB
:10272C0080B487B000AFF860B9607A60FB681B6A50
:10273C007B61FB681B6A23F00102FB681A62FB6871
:10274C009B693B613B6923F0F0033B617B681B0198
:10275C003A6913433B617B6923F00A037B617A6915
:10276C00BB6813437B61FB683A699A61FB687A69C1
:10277C001A6200BF1C37BD4680BC704780B487B05E
:10278C0000AFF860B9607A60FB681B6A23F0100236
:10279C00FB681A62FB689B697B61FB681B6A3B6187
:1027AC007B6923F470437B617B681B037A69134359
:1027BC007B613B6923F0A0033B61BB681B013A6959
:1027CC0013433B61FB687A699A61FB683A691A6248
:1027DC0000BF1C37BD4680BC704780B485B000AFCD
:1027EC00786039607B689B68FB60FB6823F0700342
:1027FC00FB603A68FB68134343F00703FB607B689C
:10280C00FA689A6000BF1437BD4680BC704780B42C
:10281C0087B000AFF860B9607A603B60FB689B687A
:10282C007B617B6923F47F437B613B681A027B6885
:10283C001A43BB6813437A6913437B61FB687A695B
:10284C009A6000BF1C37BD4680BC704780B485B011
:10285C0000AF786039607B6893F83C30012B01D174
:10286C00022341E07B68012283F83C207B68022232
:10287C0083F83D207B681B685B68FB607B681B688A
:10288C009B68BB60FB6823F07003FB603B681B68B4
:10289C00FA681343FB607B681B68FA685A607B68B4
:1028AC001B68144A934209D07B681B68B3F1804FB4
:1028BC0004D07B681B68104A93420CD1BB6823F090
:1028CC008003BB603B685B68BA681343BB607B6882
:1028DC001B68BA689A607B68012283F83D207B688C
:1028EC00002283F83C20002318461437BD4680BCD8
:1028FC00704700BF002C01400004004080B483B03E
:10290C0000AF786000BF0C37BD4680BC704780B408
:10291C0083B000AF786000BF0C37BD4680BC7047F9
:10292C0070B500260C4D0D4C641BA410A64209D1A9
:10293C0000F022F800260A4D0A4C641BA410A64293
:10294C0005D170BD55F8043B98470136EEE755F8B4
:10295C00043B98470136F2E7BC290008BC29000863
:10296C00BC290008C029000803460244934200D148
:10297C00704703F8011BF9E7F8B500BFF8BC08BCB9
:10298C009E467047F8B500BFF8BC08BC9E46704721
:10299C0002030405060708090A0B0C0D0E0F101094
:1029AC0000000000000000000102030406070809F3
:0429BC0031010008DD
:0429C0000D010008FD
:1029C40001000000010000000100000001000000FF
:1029D40001000000010000000100000001000000EF
:1029E40001000000010000000100000001000000DF
:1029F400010000000A0000000024F40000000000B0
:102A040005000000000000000200000000000000BB
:0C2A1400030000001000000001000000A2
:04000005080012E5F8
:00000001FF
